:1000000010308A0000280000FF00030E8301A100C9
:100010000A08A0008A010408A2007708A300780853
:10002000A4007908A5007A08A6007B08A70083131E
:1000300083120B1E1D288B183028220884002308E9
:10004000F7002408F8002508F9002608FA00270818
:10005000FB0020088A00210E8300FF0E7F0E09009E
:100060008A110A12802B0A108A100A118207203482
:100070000D340A34203400340A108A100A11820721
:10008000453473347434613464346F3420344D3403
:100090006F34743465342034313420340D340A34F0
:1000A00000340A108A100A11820743346F346E3408
:1000B00065346334743461346E3464346F342E3494
:1000C0002E342E3400340A108A100A1182074F345D
:1000D0004B3420340D340A3400340A108A100A11CB
:1000E00082074434613474346F342034723465349C
:1000F000633469346234693464346F345F345B343C
:1001000030345D343A3420342534553420340034CE
:100110000A108A100A1182072034203444346134D2
:1001200074346F3420347234653463346934623427
:10013000693464346F345F345B3431345D343A3461
:10014000203425344434203400340A108A100A1133
:100150008207203420344434613474346F342034C2
:1001600072346534633469346234693464346F34AE
:100170005F345B3432345D343A34203425344434D3
:1001800020340D340A3400340A108A100A11820710
:100190004434613474346F342034723465346334DD
:1001A00069346234693464346F345F345B343334BB
:1001B0005D343A3420342534443420340D340A3448
:1001C000203400340A108A100A1182072D342D348D
:1001D0002D342D342034503475346C347334613400
:1001E00064346F34203432342D342D342D342D3496
:1001F00020340D340A3400340A148A100A1182079C
:100200002D342D342D342D3420344D346F3464345A
:100210006F34203467347234613462346134723440
:1002200020346434613474346F3473342D342D3499
:100230002D342D3420340D340A3400340A148A103D
:100240000A118207253432342E3432346634203495
:100250000D340A34203400340A148A100A1182073B
:100260002D342D342D342D342034503475346C34E9
:100270007334613464346F34203434342D342D3489
:100280002D342D3420340D340A3400340A148A10ED
:100290000A1182074634723461346D346534203477
:1002A0004234753466346634653472343A342034FA
:1002B00000340A148A100A1182072834363429348B
:1002C0002D3420344D346F3464346F34203445344D
:1002D00073346334753463346834613420340D34DA
:1002E0000A3400340A148A100A1182072D342D347E
:1002F0002D342D342034503475346C3473346134DF
:1003000064346F342034353420342D3420344D346B
:100310006F3464346F34203443346F346E34743447
:1003200069346E3475346F342034763430342E347E
:10033000313420342D342D342D342D3420340D34EB
:100340000A3400340A148A100A1182072034203437
:1003500043346F346E347434613464346F347234C3
:100360003A3420342534443420340D340A340034F3
:100370000A148A100A1182075234653463346534D2
:10038000703474346F34723420346C3469347334A0
:1003900074346F343A3400340A148A100A11820714
:1003A0004634693472346D34203453344C342D3433
:1003B00041346934723420344D346F3474346534CC
:1003C0005F344D34613473347434653472342034A2
:1003D0004234653474346134203430342E34303453
:1003E00032340D340A3400340A148A100A11FB3EE8
:1003F00003188A0A82002D342D342D3420344D34D4
:1004000065346E34753420342D342D342D340D3450
:100410000A3400340A108A140A1182074334613402
:100420006E3461346C343B34443469347234653432
:100430006334633469346F346E3420344D34613442
:1004400073347434653472342E342E342E343A348A
:10045000203430347834343430343B3430347834ED
:100460003034383420340D340A3400340A108A14FD
:100470000A1182072834313429342D34203445348C
:1004800073347434613464346F3420344D346F34D5
:10049000743465342034313420340D340A3400345B
:1004A0000A108A140A1182072834323429342D3470
:1004B00020344D346F3464346F34203467347234F4
:1004C000613462346134723420346434613474349D
:1004D0006F34733420340D340A3400340A108A1413
:1004E0000A1182072834343429342D34203454340A
:1004F000653473347434203442347534663466346D
:100500006534723420344634723461346D34653469
:1005100020340D340A3400340A108A140A11820778
:100520002834353429342D3420344D346F34643438
:100530006F34203443346F346E34743469346E3421
:1005400075346F342034763430342E3431342034E2
:100550000D340A3400340A108A140A1182072D342B
:100560002D342D342D342034503475346C347334A0
:10057000613464346F3420346534733470346134DE
:10058000633469346F3420342D342D342D342D34BC
:1005900020340D340A3400340A108A140A118207F8
:1005A0002D342D342D342D342034503475346C34A6
:1005B0007334613464346F34203433342D342D3447
:1005C0002D342D3420340D340A34003483160614AF
:1005D0008312061CF02AA918F02A0230F8007F2B9B
:1005E000B710370883168700831287101308273047
:1005F00093008316141CFA2A831213088316BC0076
:1006000083121308703093008316141C052B831279
:10061000B7103708831687008312871483163C1B94
:100620001A2B8312A91C162B83161A2B0330F800E1
:100630007F2B83168312B710370883168700831227
:1006400087101308613093008316141C252B831226
:10065000130893018316141C2B2B83121308AD006F
:10066000130893018316141C332B83121308B6004E
:100670008316BA013A08073C031C4E2B2E303A076A
:10068000840083138312130893018316141C462BD2
:100690008312130880008316BA0A3A2B8312B7100C
:1006A00037088316870083128714B710370883161C
:1006B0008700831287101308173093008316141CC9
:1006C0005F2B8312130893018316141C652B83126E
:1006D00013088316BB008312B710370883168700F0
:1006E0008312871483163B187B2B8312A9140130C5
:1006F000F8007F2B83168312A9100030F800003415
:10070000E62278088316B900B9080319892B390B3A
:10071000D52B83122E08C0002F08C1003008C2005C
:100720003108C3003208C4003308C5003408C600CD
:100730003508C700E62278088316B900BA013A08DE
:10074000073C031CB02B2E303A07840083130008AB
:10075000BB0083120C1EAA2B99008316BA0A9F2B8A
:100760008312E60A6608043C031DC92B8316BB01ED
:100770003B08831233208316BB0AF70083120C1E3A
:10078000BF2B9900043083163B02031DB82B831244
:10079000E6018316B9080319892B390BD02B892B55
:1007A0008312E62278088316B90083128B108A110F
:1007B0000A121D280B138B138B1BDB2B0B168316B6
:1007C00001130614C03083128B048A110A163928CB
:1007D000831687110716871283129412B7123708EF
:1007E0008316870083123716370883168700831213
:1007F000B711370883168700203083129400C03069
:100800008316940083128A110A163C2883168710D7
:1008100006140711831237113708831687008312D5
:100820000711B71037088316870083128710130843
:10083000303093008316141C1B2C83121308FF30D6
:1008400093008316141C222C83121308C2309300C9
:100850008316141C292C83121308C23093008316AC
:10086000141C302C83121308C23093008316141CFE
:10087000372C83121308C23093008316141C3E2CAD
:100880008312B71037088316870083128714B710B6
:100890003708831687008312871013082A309300C5
:1008A0008316141C512C83121308FF3093008316F7
:1008B000141C582C83121308C23093008316141C86
:1008C0005F2C83121308C23093008316141C662C0D
:1008D00083121308C23093008316141C6D2C8312EC
:1008E0001308C23093008316141C742C8312B710A3
:1008F00037088316870083128714B71037088316CA
:1009000087008312871013082B3093008316141C62
:10091000872C8312680893008316141C8D2C831275
:100920001308C23093008316141C942C83121308EE
:10093000C23093008316141C9B2C83121308C23000
:1009400093008316141CA22C83121308C230930048
:100950008316141CA92C8312B7103708831687003E
:1009600083128714B7103708831687008312871005
:1009700013082C3093008316141CBC2C831213080C
:1009800093018316141CC22C8312B71037088316E8
:10099000870083128714B7103708831687008312E5
:1009A00087101308213093008316141CD52C831252
:1009B0001308073093008316141CDC2C8312B71025
:1009C00037088316870083128714B71037088316F9
:1009D0008700831287101308223093008316141C9B
:1009E000EF2C83121308073093008316141CF62C87
:1009F0008312B71037088316870083128714B71045
:100A0000370883168700831287101308233093005A
:100A10008316141C092D83121308033093008316C8
:100A2000141C102D8312B710370883168700831209
:100A30008714B710370883168700831287101308AE
:100A4000243093008316141C232D831213080A30BC
:100A500093008316141C2A2D8312B71037088316AF
:100A6000870083128714B710370883168700831214
:100A700087101308253093008316141C3D2D831214
:100A8000670893008316141C432D8312B710370890
:100A90008316870083128714B710370883168700E0
:100AA000831287101308263093008316141C562DCA
:100AB00083121308073093008316141C5D2D8312D4
:100AC000B71037088316870083128714B7103708CA
:100AD000831687008312871013082730930083162C
:100AE000141C702D83121308703093008316141C8D
:100AF000772D8312B7103708831687008312871467
:100B0000B710370883168700831287101308313017
:100B100093008316141C8A2D83121308013093004E
:100B20008316141C912D8312B71037088316870083
:100B300083128714B7103708831687008312871033
:100B40001308323093008316141CA42D831213084B
:100B50000A3093008316141CAB2D8312B71037088C
:100B60008316870083128714B7103708831687000F
:100B7000831287101308333093008316141CBE2D84
:100B8000831213080A3093008316141CC52D831298
:100B9000B710370883168700831287148A110A1644
:100BA000432868308400831300080319E52D0130C1
:100BB000F800F701F70BDA2DF80BD92D4A30F700C2
:100BC000F70BE02DE32D800BD72D003437113708BC
:100BD0008316870083120711B71037088316870022
:100BE000831287101308203093008316141CF62DEF
:100BF000831213080F3093008316141CFD2D8312EB
:100C0000B710370883168700831287140230E80074
:100C1000D125371137088316870083120715313025
:100C2000F700F70B112E142E8A110A1646287208A7
:100C3000F801710203181F2E7108F7002B2EF7011F
:100C40000830F300F10DF70D720877020318F70072
:100C5000F80DF30B222E003420306C1E3030ED00E6
:100C60006B08F700EB1F3B2EF709F70A7708EB003C
:100C70002D30ED00EC176B08F1006430F200172600
:100C80007708EB0030307807EE006B08F1000A308F
:100C9000F200172630307707F00030307807EF0089
:100CA0006D08F700EC1D562EEC1F6C116C1A632EAC
:100CB000EC1F7E2E6C197E2E7708EE00EC187E2E2F
:100CC0007708EF007E2E30306E02031D7E2E7708EF
:100CD000EE002030ED00EC1D712E6C11EC14EC1FB9
:100CE000EC1030306F02031D7E2E7708EF002030AD
:100CF000EE00EC1D712EEC10EC1F6C106C1D842EA0
:100D00006D080C1E812E9900EC1C8A2E6E080C1E9C
:100D1000872E99006C1C902E6F080C1E8D2E99004A
:100D200070080C1E912E990000340D300C1E962E6A
:100D300099000A300C1E9A2E9900E70167083C20A2
:100D4000E70AF70077080C1EA32E990010306702FF
:100D5000031D9E2EE70167085120E70AF700770878
:100D60000C1EB02E99000D306702031DAB2E6430AF
:100D7000AE00AF00B000B1000130B6008A1500200F
:100D80008A117808E0000C30E700FA30E800D1253D
:100D9000E70BC52E4008BA00E70167086320E70AA1
:100DA000F70077080C1ED22E990005306702031D4C
:100DB000CD2EE70167086D20E70AF70077080C1EC3
:100DC000DF2E990013306702031DDA2E4008E80079
:100DD0001B30E9006808F1006430F200172677083C
:100DE000E80078083030031DFC2EE91C042FE919B7
:100DF000042F691A2030FF2EE91169126914F807CF
:100E000078080C1E012F99006808F1000A30F200E2
:100E100017267708E80078083030031D152FE919E8
:100E20001A2F691C1A2F691A2030F80778080C1E2F
:100E3000172F99003030E80768080C1E1D2F990005
:100E400020300C1E212F9900E70167088820E70A4F
:100E5000F70077080C1E2A2F990015306702031D32
:100E6000252F4108EB001F30EC002C2620300C1EF3
:100E7000372F9900E7016708A520E70AF7007708F0
:100E80000C1E402F990015306702031D3B2F4208AE
:100E9000EB001F30EC002C2620300C1E4D2F99004B
:100EA0000D300C1E512F99000A300C1E552F990041
:100EB000E7016708C420E70AF70077080C1E5E2FD9
:100EC000990013306702031D592F4308EB001F30B0
:100ED000EC002C261530E8006808C420E80AF7006A
:100EE00077080C1E712F990019306802031D6C2FB2
:100EF000E70167083320E70AF70077080C1E7E2F0A
:100F0000990004306702031D792F0034E701670858
:100F10007221E70AF70077080C1E8C2F99002B30FE
:100F20006702031D872FE7016708A221E70AF70080
:100F300077080C1E992F99000C306702031D942F1F
:100F40006508EB001F30EC002C2620300C1EA62F6D
:100F500099000D300C1EAA2F99000A300C1EAE2FDE
:100F60009900E50A95261430E700FA30E800D1250B
:100F7000E70BB52F862F00348E30F7006808F80095
:100F80006708F900FA01F808031DD02F7908F80066
:100F9000F9010830F702F808031DD02FF701D82F08
:100FA0000310F81BD72FF90DF80DF703D02FF81306
:020FB00000340B
:101000008B1F04282914052829100B138B138B1B05
:101010000628371137088316870083120711B71087
:101020003708831687008312871013082730930030
:101030008316141C1928831213087030930083162A
:10104000141C20288312B7103708831687008312D8
:101050008714B71037088316870083128710130888
:10106000223093008316141C332883121308013096
:1010700093008316141C3A288312B710370883167E
:10108000870083128714B7103708831687008312EE
:1010900087101308303093008316141C4D288312D8
:1010A000360893008316141C532883121308C23089
:1010B00093008316141C5A2883121308C23093001D
:1010C0008316141C612883121308C2309300831600
:1010D000141C682883121308C23093008316141C52
:1010E0006F288312B710370883168700831287147E
:1010F000B7103708831687008312871013082A3029
:1011000093008316141C82288312360893008316DA
:10111000141C882883121308C23093008316141CF1
:101120008F2883121308C23093008316141C96284C
:1011300083121308C23093008316141C9D28831257
:101140001308C23093008316141CA4288312B7100E
:1011500037088316870083128714B7103708831661
:1011600087008312871013080B3093008316141C1A
:10117000B7288312130893018316141CBD28831209
:101180001308B600130893018316141CC528831294
:10119000130893018316141CCB28831213089301A0
:1011A0008316141CD1288312130893018316141C70
:1011B000D7288312B7103708831687008312871445
:1011C000B710370883168700831287101308A030E2
:1011D00093008316141CEA288312AC0A2C0893008F
:1011E0008316141CF1288312360893008316141CEE
:1011F000F7288312E7016708073C031C0D292E30EE
:101200006707840083130008E900690893008316C8
:10121000141C08298312E70AFB28B7103708831625
:10122000870083128714B71037088316870083124C
:1012300087101308203093008316141C1D29831275
:1012400013080E3093008316141C24298312B71040
:1012500037088316870083128714371137088316DF
:101260008700831207150430F700F70B352938295A
:10127000371137088316870083120711AB01AA01C3
:10128000831606148312061C5029AA0A0319AB0AF6
:101290002A08F43C031D4F292B0B4F2950294029C4
:1012A000B71037088316870083128710130827307A
:1012B00093008316141C5A2983121308E80013089C
:1012C000703093008316141C63298312B7103708FB
:1012D0008316870083128714B71037088316870098
:1012E000831287101308223093008316141C76296A
:1012F00083121308073093008316141C7D29831270
:10130000B71037088316870083128714B710370881
:1013100083168700831287101308E1309300831629
:10132000141C90298312B710370883168700831284
:101330008714B710370883168700831287101308A5
:10134000203093008316141CA329831213080F3036
:1013500093008316141CAA298312B710370883162A
:10136000870083128714371137088316870083128A
:1013700007153130F700F70BBB29BE292A08F43CCA
:10138000031DCC292B0BCC29291CC829C0308B0468
:101390008B100230F800E129681AD929E81ED929F2
:1013A000291CD429C0308B048B100030F800E129AF
:1013B000E129291CDD29C0308B048B100130F80095
:1013C000E129003467080319A72AF3006B08031901
:1013D000A72AF302031CF1297F30F3070318A72A79
:1013E000F7298130F302031CA72A0319A72A7308DF
:1013F000F700F801F901FA01F2016808F100F117AC
:101400006908F0006A08EF001930F3006E08EF0277
:1014100003181A2A0130F00203181A2AF1020318DD
:101420001A2AF20203181A2AF20AF10AF00A6E08BE
:10143000EF074C2A6D08F0020318352A0130F1023B
:101440000318352AF2020318352AF20AF10A6D0848
:10145000F0076E08EF07031C4C2AF00A031D4C2A04
:10146000F10A031D4C2AF20A4C2A6C088038F1025A
:1014700003184B2A0130F20203184B2AF20A6C08B7
:101480008038F1076D08F007031C292AF10A031DB3
:10149000292AF20A292A7A14F30B4F2A5A2A03100E
:1014A000EF0DF00DF10DF20D0310FA0DF90DF80D21
:1014B000F40D062A741C622A0310F80CF90CFA0CBD
:1014C000F40C652AF7030319A72AF41B8E2A0310CC
:1014D000EF0DF00DF10DF20D6E08EF0203187A2AF0
:1014E0000130F00203187A2AF10203187A2AF20274
:1014F000031C9D2A6D08F0020318852A0130F102B1
:101500000318852AF202031C9D2A6C088038F10218
:1015100003188E2A0130F202031C9D2AFA0A031DC9
:101520009D2AF90A031D9D2AF80A031D9D2AF70A20
:101530000319A72AF80CF90CFA0C6808F3006C08D8
:10154000F306F31FA52AF817AB2AF813AB2AF70105
:10155000F801F901FA0100348316200803191D2B44
:10156000A800240803191D2BA8070318BE2A7F30E2
:10157000A802031C1D2B03191D2BC22A8130A807AA
:1015800003181D2B2808F700F801F901FA012108BA
:10159000AC00AC172208AB002308AA001830A80042
:1015A000A9012A1CEB2A2708FA07031CDD2AF90ADD
:1015B000031DDD2AF80A0319A9172608F907031CD9
:1015C000E42AF80A0319A9172508A200A21722087D
:1015D000F8070318A917A90DF80CF90CFA0CAC0CB4
:1015E000AB0CAA0C0310A80BD02A0130F707031884
:1015F0001D2BF81B022BAC0DFA0DF90DF80DF7039E
:1016000003191D2BAC1F132BFA0A031D132BF90A08
:10161000031D132BF80A031D132BF80CF90CFA0CFD
:10162000F70A03191D2B2108A9002508A906A91FDF
:101630001B2BF817212BF813212BF701F801F901C7
:10164000FA0183120034F701F801F901FA01831657
:10165000A801A901AA01AB01270826042504240436
:101660000319622B2030AC000310A00DA10DA20DB8
:10167000A30DA80DA90DAA0DAB0D27082B02031D64
:101680004B2B26082A02031D4B2B25082902031D7C
:101690004B2B24082802031C5C2B2408A8022508D5
:1016A000031C250FA9022608031C260FAA022708DF
:1016B000031C270FAB020314F70DF80DF90DFA0DFB
:1016C000AC0B342BA830840083138312003404083D
:1016D000EC006B08EE0003198E2B6A088316A3003A
:1016E000831269088316A200831268088316A1007A
:1016F000831267088316A000A701A6012030A50069
:101700008230A4008312AC227A08EA007908E9004A
:101710007808E8007708E700EE0B6D2B6A0883165F
:10172000A300831269088316A20083126808831637
:10173000A100831267088316A0002008B63CA00011
:10174000FA012108F400A1170310A10CA20CA30CAC
:10175000FA0CF90CF80CF70CA00BA42BF41FBB2B04
:10176000F709F809F909FA09F70A0319F80A031938
:10177000F90A0319FA0A7A088312EA007908E900DB
:101780007808E8007708E700EA1FD32BEC03EC1693
:10179000E709E809E909EA09E70A0319E80A031968
:1017A000E90A0319EA0A3B30F3009A30F200CA3022
:1017B000F100F0010A30EE006B080319EC0A6A0828
:1017C0008316A300831269088316A2008312680897
:1017D0008316A100831267088316A0007308A70070
:1017E0007208A6007108A5007008A40083122323C4
:1017F0000008E700840A0008E800840A0008E900FD
:10180000840A0008EA00FD308407F708031D1B2C3A
:101810006B0A6E0203191B2C6C0803191D2C0F395F
:101820006E020319152C0318512CEC1B512C6C1B48
:101830001D2C20304C2C2030EC05EC1E2C2CEC12F6
:101840006B08031DEC037708EC002D300C1E262CD2
:1018500099006C08F700EC016B086E02031D3B2C2D
:101860007708EC002E300C1E332C99006C08F70022
:101870002030EC0500303030EC1E4C2CEC126B08A4
:10188000031DEC037708EC002D300C1E452C99004D
:101890006C08F700EC013030F70777080C1E4E2C6F
:1018A000990073088316A3007208A2007108A100B2
:1018B0007008A000A701A601A5010A30A4008312A8
:1018C00023237A08F3007908F2007808F1007708FA
:1018D000F000EE0BDF2B8A150A12842EE701670851
:1018E0008A11E2208A15E70AF70077080C1E762C89
:1018F000990015306702031D6F2CE70167088A11F4
:10190000FC208A15E70AF70077080C1E852C990041
:101910001D306702031D7E2C6430AE00AF00B000A6
:10192000B1000130B60000207808E0000C30E7007C
:10193000FA30E8008A11D1258A15E70B982C400867
:10194000BA00E8013A08E7008A11BC278A157A082C
:10195000EA007908E9007808E8007708E700EE0176
:10196000ED01EC018730EB00E2217708E700780811
:10197000E8007908E9007A08EA008316A3008312D8
:1019800079088316A200831278088316A1008312B7
:1019900077088316A000A701A6012030A500823099
:1019A000A4008312AC227A08BE007908BD00780832
:1019B000BC007708BB00E8014308E7008A11BC2798
:1019C0008A157A08E4007908E3007808E2007708CD
:1019D000E10064088316A300831263088316A20043
:1019E000831262088316A100831261088316A00087
:1019F000A701A6012030A5007930A4008312AC22F3
:101A00007A08E4007908E3007808E2007708E1004A
:101A100083146408EA006308E9006208E8006108CA
:101A2000E700EE01ED01EC017E30EB008030831821
:101A3000EC06F101F2016808F0006C08F006670896
:101A40000319062EEF00F7006B0803190F2EEF02A3
:101A50000319AB2D031C692D6C08F500F5176D08F3
:101A6000F4006E08F300F2010310F50CF40CF30C13
:101A7000F20CEF0B332DF01F402D7114232E71103B
:101A80006F1071166A3084008313382E7112F01BA8
:101A9000532D6F1C5E2DF50CF40CF30CF20CF70AB1
:101AA00003191E2E5E2DF51B612D0310F20DF30D93
:101AB000F40DF50DF70303191E2E532D7117CB2DC1
:101AC00071136808F000F01F672DF517172EF51336
:101AD000172E6B08EF00F7006708EF026808F500A3
:101AE000F5176908F4006A08F300F2010310F50C19
:101AF000F40CF30CF20CEF0B752DF01F822DF1148A
:101B0000232EF1106F10F1166E3084008313382EDF
:101B1000F112F01B952D6F1CA02DF50CF40CF30C9D
:101B2000F20CF70A03191E2EA02DF51BA32D03108E
:101B3000F20DF30DF40DF50DF70303191E2E952D7F
:101B4000F117CB2DF1136C08F000F01FA92DF5173C
:101B5000172EF513172E6C08F500F5176D08F40015
:101B60006E08F300F01FB82DF5137115232E7111B7
:101B7000F2016F106A3084008313382EF01BE12DC0
:101B80006808F0006F1CCB2DF50CF40CF30CF20C74
:101B9000F70A03191E2EF21FDC2DF30A031DDC2D9C
:101BA000F40A031DDC2DF50A031DDC2DF50CF40CE5
:101BB000F30CF70A03191E2E711B602DF11BA22DC9
:101BC000002E8030F506F51FE92D232E6C08F0005D
:101BD000F62D6808F000F508031DF62DF408031D26
:101BE000F62DF308031DF62DF701172EF51B002E19
:101BF0000310F20DF30DF40DF50DF70BF62D1E2E5F
:101C0000F01F042EF517172EF513172E6B08F7008B
:101C10006C08F5006D08F4006E08F300172E6708D5
:101C2000F7006808F5006908F4006A08F300750811
:101C3000F8007408F9007308FA00562EF701F8014D
:101C4000F901FA01562EF201F309F409F509F20936
:101C5000F20A031D312EF30A031D312EF40A031973
:101C6000F50A71183F2DF118812D7119B72DE62D48
:101C70000008F307031C422EF40A031D422EF50A46
:101C800003196F1484030008F407031C4A2EF50A95
:101C900003196F1484030008801F803AF5070318A6
:101CA0006F14711A462DF11A882DBE2D7A08E400A2
:101CB0007908E3007808E2007708E1006408EA00A8
:101CC0006308E9006208E8006108E7000A30EE00F6
:101CD000D730ED002330EC007830EB00E2217A08B9
:101CE000E4007908E3007808E2007708E100893031
:101CF00084006408EA006308E9006208E8006108FB
:101D0000E7000230EB00672B0530E70067088A1117
:101D10001E218A15E70AF70077080C1E8D2E990000
:101D200009306702031D862E1430E700FA30E80000
:101D30008A11D1258A15E70B962E8C2C8A110A164A
:101D40004829EA016A088A112C218A15EA0AF70053
:101D500077080C1EA92E990015306A02031DA22EC9
:101D6000E8016808173C031CC62EE9016908073C16
:101D7000031CC32E48306807840083136908800061
:101D8000E80AE90AB62EE803E80AB12EEA016A0871
:101D90008A1146218A15EA0AF70077080C1ECE2E12
:101DA00099000E306A02031DC72EE7016708173C31
:101DB000031CE82E48306707840083130008EA00FC
:101DC000EB001F30EC008A112C268A15E70AD62E6C
:101DD0008A110A164829E70167088A1159218A15CC
:101DE000E70AF70077080C1EF32E990014306702FB
:101DF000031DEC2E6430B1000130B60000207808DD
:101E0000E000C830E8008A11D1258A15371037085C
:101E100083168700831207140430E700FA30E800C5
:101E20008A11D1258A15E70B0E2F37103708831634
:101E30008700831207100430E700FA30E8008A11A7
:101E4000D1258A15E70B1D2F062F8A110A1648295E
:10200000840183131F308305193083169900A6308D
:10201000980090308312980083161F149F141F1588
:102020009F1107309C0083122910AA01AB01A9104F
:10203000AC01AD01AE01AF01B001B101B201B3011C
:10204000B401B501B601FF30B700B801B901BA015A
:10205000BB01BC01BD01BE01E101E201E301E401FC
:10206000E501E601003083168500831285010A121E
:10207000DA2B0A160A12E82B0A164030E70008305D
:10208000E8000A12062C0A160A12E62D0A16E701C3
:1020900067080A12B8210A16E70AF70077080C1E2B
:1020A0004F2899000F306702031D48280D300C1E81
:1020B000572899000A300C1E5B2899000D300C1E21
:1020C0005F2899000A300C1E63289900E701670811
:1020D0000A12CC210A16E70AF70077080C1E6E28B0
:1020E000990023306702031D6728E70167080A1279
:1020F000F4210A16E70AF70077080C1E7D289900DC
:102100000E306702031D7628E70167080A120A22CB
:102110000A16E70AF70077080C1E8C28990027306A
:102120006702031D8528E70167080A1236220A168E
:10213000E70AF70077080C1E9B2899001530670204
:10214000031D9428E70167080A1250220A16E70ABD
:10215000F70077080C1EAA28990019306702031DA2
:10216000A328E70167080A126E220A16E70AF70099
:1021700077080C1EB928990019306702031DB22890
:10218000E70167080A128C220A16E70AF7007708A7
:102190000C1EC82899001A306702031DC128E701E8
:1021A00067080A1259210A16E70AF70077080C1E79
:1021B000D728990014306702031DD0280D300C1E5B
:1021C000DF2899000A300C1EE32899008C1EE628AF
:1021D0001A08BF003F08203A03190429103A0319CE
:1021E0001429013A03191829033A03191C29013A41
:1021F00003192129073A03193129013A031936290C
:10220000033A03193A294829E70167080A12AB2261
:102210000A16E70AF70077080C1E0C2999001C30F3
:102220006702031D052948290A1286270A1648292C
:102230000A1295260A1648290A128A156E2C0A16C1
:102240008A11E70167080A12CC220A16E70AF7008A
:1022500077080C1E2929990015306702031D2229D1
:1022600048290A128A15A12E0A168A110A128627EF
:102270000A1648290A128A15EB2E0A168A1104300A
:10228000E700FA30E8000A12D1250A16E70B4129C7
:042290005628630069
:02400E00313F40
:00000001FF
;PIC16F876A
