:1000000008308A001F2A0000FF00030E8301A100B0
:100010000A08A0008A010408A2007708A300780853
:10002000A4007908A5007A08A6007B08A70083131E
:1000300083120B1E1D288B183028220884002308E9
:10004000F7002408F8002508F9002608FA00270818
:10005000FB0020088A00210E8300FF0E7F0E09009E
:100060008A110A12D3280A108A100A118207203432
:100070000034831606148312061C4328A81843284C
:100080000230F800D228B610360883168700831293
:1000900087101308273093008316141C4D288312F1
:1000A00013088316D500831213087030930083164B
:1000B000141C58288312B610360883168700831242
:1000C00087148316551B6D288312A81C6928831674
:1000D0006D280330F800D22883168312B610360834
:1000E00083168700831287101308613093008316EC
:1000F000141C78288312130893018316141C7E287D
:1001000083121308AC00130893018316141C86286D
:1001100083121308B5008316D3015308073C031C50
:10012000A1282D30530784008313831213089301F1
:100130008316141C99288312130880008316D30A8F
:100140008D288312B6103608831687008312871411
:10015000B6103608831687008312871013081730ED
:1001600093008316141CB22883121308930183167C
:10017000141CB828831213088316D4008312B610F7
:100180003608831687008312871483165418CE28E6
:100190008312A8140130F800D22883168312A81005
:1001A0000030F8000034392078088316D200D208D5
:1001B0000319DC28520BF72883122D08B9002E08EA
:1001C000BA002F08BB003008BC003108BD0032085F
:1001D000BE003308BF003408C000392078088316F9
:1001E000D200D2080319DC28520BF728DC2883122E
:1001F0008B108A110A121D280B138B138B1BFD28E1
:100200000B16831601130614C03083128B048A1553
:100210000A12742A83168711071687128312941202
:10022000B6123608831687008312361636088316F0
:1002300087008312B6113608831687002030831298
:100240009400C0308316940083128A150A12772A0C
:100250008316871006140711831236113608831689
:10026000870083120711B6103608831687008312A1
:1002700087101308303093008316141C3D29831215
:100280001308FF3093008316141C442983121308AB
:10029000C23093008316141C4B2983121308C230FA
:1002A00093008316141C522983121308C230930042
:1002B0008316141C592983121308C2309300831625
:1002C000141C60298312B610360883168700831227
:1002D0008714B61036088316870083128710130818
:1002E0002A3093008316141C732983121308FF30DD
:1002F00093008316141C7A2983121308C2309300CA
:100300008316141C812983121308C23093008316AC
:10031000141C882983121308C23093008316141CFE
:100320008F2983121308C23093008316141C962958
:100330008312B61036088316870083128714B6100E
:100340003608831687008312871013082B3093001A
:100350008316141CA92983121308831639088312E3
:1003600093008316141CB22983121308C230930021
:100370008316141CB92983121308C2309300831604
:10038000141CC02983121308C23093008316141C56
:10039000C72983121308C23093008316141CCE2978
:1003A0008312B61036088316870083128714B6109E
:1003B0003608831687008312871013082C309300A9
:1003C0008316141CE1298312130893018316141C4D
:1003D000E7298312B6103608831687008312871424
:1003E000B610360883168700831287101308213051
:1003F00093008316141CFA29831213080730930004
:100400008316141C012A8312B6103608831687003F
:1004100083128714B610360883168700831287105C
:100420001308223093008316141C142A8312130815
:10043000073093008316141C1B2A8312B61036084B
:100440008316870083128714B61036088316870038
:10045000831287101308233093008316141C2E2A4E
:1004600083121308033093008316141C352A831259
:10047000B61036088316870083128714B610360824
:100480008316870083128710130824309300831685
:10049000141C482A831213080A3093008316141C74
:1004A0004F2A8312B61036088316870083128714EA
:1004B000B61036088316870083128710130825307C
:1004C00093008316141C622A8312130883163808BB
:1004D000831293008316141C6B2A8312B6103608FD
:1004E0008316870083128714B61036088316870098
:1004F000831287101308263093008316141C7E2A5B
:1005000083121308073093008316141C852A831264
:10051000B61036088316870083128714B610360883
:1005200083168700831287101308273093008316E1
:10053000141C982A83121308703093008316141C1D
:100540009F2A8312B61036088316870083128714F9
:10055000B6103608831687008312871013083130CF
:1005600093008316141CB22A8312130801309300DF
:100570008316141CB92A8312B61036088316870016
:1005800083128714B61036088316870083128710EB
:100590001308323093008316141CCC2A83121308DC
:1005A0000A3093008316141CD32A8312B61036081F
:1005B0008316870083128714B610360883168700C7
:1005C000831287101308333093008316141CE62A15
:1005D000831213080A3093008316141CED2A831229
:1005E000B610360883168700831287148A150A12FC
:1005F000802ABA3084008313000803190D2B0130C0
:10060000F800F701F70B022BF80B012B4A30F7002B
:10061000F70B082B0B2B800BFF2A00343611360802
:100620008316870083120711B610360883168700D9
:10063000831287101308203093008316141C1E2B7E
:10064000831213080F3093008316141C252B83127A
:10065000B61036088316870083128714023083167B
:10066000BA008312F92236113608831687008312E6
:1006700007153130F700F70B3B2B3E2B8A150A127A
:10068000832A8E30F70083163908F8003808F900FD
:10069000FA01F808031D562B7908F800F901083013
:1006A000F702F808031D562BF7015E2B0310F81B09
:1006B0005D2BF90DF80DF703562BF81383128A15ED
:1006C0000A12032B8030831C682B8316BD0683120D
:1006D0008316C201C3013908C1003D08C1063808AC
:1006E0000319562CC000F7003C0803195F2CC00208
:1006F0000319FB2B031CB92B3D08C600C6173E0887
:10070000C5003F08C400C3010310C60CC50CC40CCF
:10071000C30CC00B832BC11F902B4214732C4210AF
:1007200040104216BB3084008313882C4212C11B38
:10073000A32B401CAE2BC60CC50CC40CC30CF70A73
:1007400003196E2CAE2BC61BB12B0310C30DC40DA9
:10075000C50DC60DF70303196E2CA32B42171B2CD6
:1007600042133908C100C11FB72BC617672CC61327
:10077000672C3C08C000F7003808C0023908C600E2
:10078000C6173A08C5003B08C400C3010310C60CD5
:10079000C50CC40CC30CC00BC52BC11FD22BC2147B
:1007A000732CC2104010C216BF3084008313882CF3
:1007B000C212C11BE52B401CF02BC60CC50CC40C8F
:1007C000C30CF70A03196E2CF02BC61BF32B031076
:1007D000C30DC40DC50DC60DF70303196E2CE52B13
:1007E000C2171B2CC2133D08C100C11FF92BC6172D
:1007F000672CC613672C3D08C600C6173E08C50007
:100800003F08C400C11F082CC6134215732C4211A7
:10081000C3014010BB3084008313882CC11B312CD2
:100820003908C100401C1B2CC60CC50CC40CC30CE1
:10083000F70A03196E2CC31F2C2CC40A031D2C2C81
:10084000C50A031D2C2CC60A031D2C2CC60CC50C76
:10085000C40CF70A03196E2C421BB02BC21BF22BDF
:10086000502C8030C606C61F392C732C3D08C100A1
:10087000462C3908C100C608031D462CC508031DB7
:10088000462CC408031D462CF701672CC61B502CB0
:100890000310C30DC40DC50DC60DF70B462C6E2CF1
:1008A000C11F542CC617672CC613672C3C08F700D1
:1008B0003D08C6003E08C5003F08C400672C380844
:1008C000F7003908C6003A08C5003B08C4004608CE
:1008D000F8004508F9004408FA00A62CF701F801D1
:1008E000F901FA01A62CC301C409C509C609C30947
:1008F000C30A031D812CC40A031D812CC50A0319D8
:10090000C60A42188F2BC218D12B4219072C362C3D
:100910000008C407031C922CC50A031D922CC60AAA
:100920000319401484030008C507031C9A2CC60A47
:100930000319401484030008801F803AC607031877
:100940004014421A962BC21AD82B0E2C8312003454
:100950008316380803196E2DC4003C0803196E2D48
:10096000C402031CB82C7F30C40703186E2DBE2CA4
:100970008130C402031C6E2D03196E2D4408F7004C
:10098000F801F901FA01C3013908C200C2173A0897
:10099000C1003B08C0001930C4003F08C002031862
:1009A000E12C0130C1020318E12CC2020318E12C32
:1009B000C3020318E12CC30AC20AC10A3F08C007D8
:1009C000132D3E08C1020318FC2C0130C20203188B
:1009D000FC2CC3020318FC2CC30AC20A3E08C10740
:1009E0003F08C007031C132DC10A031D132DC20AA3
:1009F000031D132DC30A132D3D088038C2020318AE
:100A0000122D0130C3020318122DC30A3D0880388D
:100A1000C2073E08C107031CF02CC20A031DF02CBC
:100A2000C30AF02C7A14C40B162D212D0310C00D0F
:100A3000C10DC20DC30D0310FA0DF90DF80DC50D52
:100A4000CD2C451C292D0310F80CF90CFA0CC50C03
:100A50002C2DF70303196E2DC51B552D0310C00D4A
:100A6000C10DC20DC30D3F08C0020318412D013056
:100A7000C1020318412DC2020318412DC302031CF9
:100A8000642D3E08C10203184C2D0130C202031828
:100A90004C2DC302031C642D3D088038C20203188C
:100AA000552D0130C302031C642DFA0A031D642D69
:100AB000F90A031D642DF80A031D642DF70A0319B2
:100AC0006E2DF80CF90CFA0C3908C4003D08C40668
:100AD000C41F6C2DF817722DF813722DF701F80151
:100AE000F901FA0183120034831645080319E52D34
:100AF000CD0049080319E52DCD070318862D7F3059
:100B0000CD02031CE52D0319E52D8A2D8130CD077B
:100B10000318E52D4D08F700F801F901FA01460820
:100B2000D100D1174708D0004808CF001830CD00B9
:100B3000CE014F1CB32D4C08FA07031CA52DF90A52
:100B4000031DA52DF80A0319CE174B08F907031C3E
:100B5000AC2DF80A0319CE174A08C700C717470873
:100B6000F8070318CE17CE0DF80CF90CFA0CD10CBF
:100B7000D00CCF0C0310CD0B982D0130F7070318C4
:100B8000E52DF81BCA2DD10DFA0DF90DF80DF7035F
:100B90000319E52DD11FDB2DFA0A031DDB2DF90A00
:100BA000031DDB2DF80A031DDB2DF80CF90CFA0CE4
:100BB000F70A0319E52D4608CE004A08CE06CE1FD7
:100BC000E32DF817E92DF813E92DF701F801F901E4
:100BD000FA0183120034F701F801F901FA018316D2
:100BE000CD01CE01CF01D0014C084B044A04490489
:100BF00003192A2E2030D1000310C50DC60DC70DD4
:100C0000C80DCD0DCE0DCF0DD00D4C085002031DDB
:100C1000132E4B084F02031D132E4A084E02031DCC
:100C2000132E49084D02031C242E4908CD024A0800
:100C3000031C4A0FCE024B08031C4B0FCF024C087B
:100C4000031C4C0FD0020314F70DF80DF90DFA0D2B
:100C5000D10BFC2DCD308400831383120034700837
:100C60008400831371188317831645088000840A53
:100C70008001F00A0319F10A831200340408831674
:100C8000BD003C08BF000319602E3B08C8003A08AD
:100C9000C7003908C6003808C500CC01CB01203098
:100CA000CA008230C900831274257A088316BB00FB
:100CB0007908BA007808B9007708B800BF0B452E4C
:100CC0003B08C8003A08C7003908C6003808C50004
:100CD0004508B63CC500FA014608C900C61703100E
:100CE000C60CC70CC80CFA0CF90CF80CF70CC50BA9
:100CF0006F2EC91F862EF709F809F909FA09F70AB4
:100D00000319F80A0319F90A0319FA0A7A08BB0049
:100D10007908BA007808B9007708B800BB1F9D2E83
:100D2000BD03BD16B809B909BA09BB09B80A031948
:100D3000B90A0319BA0A0319BB0A3B30C4009A3036
:100D4000C300CA30C200C1010A30BF003C08031909
:100D5000BD0A3B08C8003A08C7003908C600380871
:100D6000C5004408CC004308CB004208CA00410833
:100D7000C9008312EB2500088316B800840A000816
:100D8000B900840A0008BA00840A0008BB00FD30DC
:100D90008407F708031DDF2E3C0A3F020319DF2EEC
:100DA0003D080319E12E0F393F020319D92E03180C
:100DB000192FBD1B192F3D1BE12E2030132F203082
:100DC000BD05BD1EF12EBD123C08031DBD037708F5
:100DD000BD002D30C50083122F2683163D08F70075
:100DE000BD013C083F02031D012F7708BD002E30D6
:100DF000C50083122F2683163D08F7002030BD055D
:100E000000303030BD1E132FBD123C08031DBD0342
:100E10007708BD002D30C50083122F2683163D08AC
:100E2000F700BD013030F7077708C50083122F2681
:100E300083164408C8004308C7004208C60041089A
:100E4000C500CC01CB01CA010A30C9008312EB25D1
:100E50007A088316C4007908C3007808C2007708AE
:0E0E6000C100BF0BA92E83128A150A12D72BD0
:101000008316B90139081F3C031C1B2AB801380894
:10101000073C031C21282D303807BA00BB010318F8
:10102000BB0A41303907840083130008BC003A082A
:10103000840083133B1883173C088000B90AB80A60
:101040000728B90308308312B5008B1F29282814FC
:101050002A2828100B138B138B1B2B2836113608CC
:101060008316870083120711B6103608831687008F
:10107000831287101308273093008316141C3E2810
:1010800083121308703093008316141C45288312B2
:10109000B61036088316870083128714B6103608F8
:1010A000831687008312871013082230930083165B
:1010B000141C582883121308013093008316141C43
:1010C0005F288312B61036088316870083128714B0
:1010D000B610360883168700831287101308303045
:1010E00093008316141C722883123508930083160C
:1010F000141C782883121308C23093008316141C22
:101100007F2883121308C23093008316141C86288C
:1011100083121308C23093008316141C8D28831287
:101120001308C23093008316141C94288312B6103F
:1011300036088316870083128714B6103608831684
:1011400087008312871013082A3093008316141C1B
:10115000A7288312350893008316141CAD28831228
:101160001308C23093008316141CB428831213088A
:10117000C23093008316141CBB2883121308C2309C
:1011800093008316141CC22883121308C2309300E4
:101190008316141CC9288312B610360883168700DC
:1011A00083128714B61036088316870083128710BF
:1011B00013080B3093008316141CDC2883121308C9
:1011C00093018316141CE22883121308B500130838
:1011D00093018316141CEA288312130893018316C3
:1011E000141CF0288312130893018316141CF6288C
:1011F0008312130893018316141CFC288312B61063
:1012000036088316870083128714B61036088316B3
:101210008700831287101308A03093008316141CD4
:101220000F298312AB0A2B0893008316141C16296E
:101230008312350893008316141C1C29BA013A083E
:10124000073C031C34292D303A078400831300081F
:10125000BC008312130883163C0883129300831684
:10126000141C3029BA0A1F298312B61036088316B7
:10127000870083128714B6103608831687008312FE
:1012800087101308203093008316141C45298312FD
:1012900013080E3093008316141C4C298312B610C9
:1012A0003608831687008312871436113608831692
:1012B0008700831207150430F700F70B5D296029BA
:1012C000361136088316870083120711AA01A90177
:1012D000831606148312061C7829A90A0319AA0A80
:1012E0002908F43C031D77292A0B772978296829D6
:1012F000B61036088316870083128710130827302C
:1013000093008316141C8229831213088316BB00D2
:1013100083121308703093008316141C8D298312D6
:10132000B61036088316870083128714B610360865
:1013300083168700831287101308223093008316C8
:10134000141CA02983121308073093008316141C61
:10135000A7298312B61036088316870083128714D4
:10136000B610360883168700831287101308E13001
:1013700093008316141CBA298312B61036088316FC
:10138000870083128714B6103608831687008312ED
:1013900087101308203093008316141CCD29831264
:1013A00013080F3093008316141CD4298312B6102F
:1013B0003608831687008312871436113608831681
:1013C0008700831207153130F700F70BE529E8296C
:1013D0002908F43C031DF6292A0BF629281CF229BA
:1013E000C0308B048B100230F8000F2A83163B1A92
:1013F000062ABB1E062A8312281C002AC0308B0432
:101400008B100030F8000F2A0F2A83168312281C35
:101410000B2AC0308B048B100130F8000F2A78089B
:10142000E10064308316BA008A118312F9228A150A
:101430008316B90A022883128A150A128E2C840197
:1014400083131F30830583161F149F141F159F11CC
:1014500007309C0083122810A901AA01A810AB0133
:10146000AC01AD01AE01AF01B001B101B201B301F8
:10147000B401B501FF30B600B701B801E301E401E2
:10148000E501E6014D30E7006F30E8007430E90017
:101490006530EA005F30EB003030EC003130ED00B9
:1014A0002030EE00EF01F001F10154308316A70067
:1014B0006530A8006D30A9007030AA006530AB001F
:1014C0007230AC006130AD007430AE007530AF00EA
:1014D0007230B0006130B1003A30B2002030B30059
:1014E000B4018A118312FC288A158A110A298A15E7
:1014F00040308316B8000130B9008A1183122829C0
:101500008A158A110E2B8A1505308316BA008A11A6
:101510008312F9228A153F30831685008312361014
:101520003608831687008312071083161F109F103A
:101530001F119F110630F700F70B9C2A00001F13A4
:1015400083121F179F1783169F1783121F141430BF
:101550008316BA008A118312F9228A15E201620801
:10156000013C031CD52A36103608831687008312E7
:101570000710C8308316BA008A118312F9228A151F
:10158000361036088316870083120714C830831676
:10159000BA008A118312F9228A153610360883168A
:1015A000870083120710E20AAF2A08308316B500BD
:1015B000FA30BA008A118312F9228A158316B50B04
:1015C000D82A0830F80083121F08C73978049F0012
:1015D0000630F700F70BEA2A0000E601E501E40116
:1015E000E301F4017408043C031C312B1F151F197F
:1015F000F72A1E08FA0083161E08B8007A08B900F8
:101600008A118312412B8A15831066088316BB004A
:10161000831265088316BA00831264088316B90022
:10162000831263088316B8007A08BF007908BE00E9
:101630007808BD007708BC008A11831262238A15DE
:101640007A08E6007908E5007808E4007708E30006
:101650000A308316BA008A118312F9228A15F40A15
:10166000F22A66088316BB00831265088316BA0047
:10167000831264088316B900831263088316B800C6
:10168000BF01BE012030BD008130BC008A11831231
:10169000A8248A157A08E6007908E5007808E400AD
:1016A0007708E30001308316BA008A118312F92209
:1016B0008A1566088316C800831265088316C7005A
:1016C000831264088316C600831263088316C5005C
:1016D000CC01CB012030CA007730C9008A118312B7
:1016E00074258A157A08E6007908E5007808E40090
:1016F0007708E300831466088316BB00831265082D
:101700008316BA00831264088316B9008312630833
:101710008316B800BF01BE01BD017E30BC008A1136
:10172000831262238A157A08E6007908E5007808B2
:10173000E4007708E30066088316BB00831265089F
:101740008316BA00831264088316B90083126308F3
:101750008316B8000A30BF00D730BE002330BD006A
:101760007830BC008A118312A8248A157A08E60012
:101770007908E5007808E4007708E300F101A0307B
:10178000F0008930840066088316BB008312650868
:101790008316BA00831264088316B90083126308A3
:1017A0008316B8000230BC008A1183123E2E8A15BF
:1017B000F301F2017208083C031CFA2B4130730755
:1017C000F800FA010318FA0A78088316B5007A08B7
:1017D000B60067307207840083130008B70035082D
:1017E000840083133618831737088000F30AF20A3F
:1017F0008312DA2BF20172080C3C031C1B2C4130C3
:101800007307F800FA010318FA0A78088316B5007E
:101810007A08B600A7307207840083130008B70067
:101820003508840083133618831737088000F30ABD
:10183000F20A8312FB2BF2017208043C031C3C2CBD
:1018400041307307F800FA010318FA0A7808831682
:10185000B5007A08B600A030720784008313000830
:10186000B7003508840083133618831737088000C3
:10187000F30AF20A83121C2CF2017208043C031CC6
:10188000662C41307307F800FA010318FA0A780849
:101890008316B5007A08B600B701B8013508840090
:1018A0008313361883173708840738088A11831280
:1018B00033208A15800000380319632C8316B80A78
:1018C000B70A4E2C8312F30AF20A3D2CE201620899
:1018D000023C031C8D2C36103608831687008312B9
:1018E0000710C8308316BA008A118312F9228A15AC
:1018F000361036088316870083120714C830831603
:10190000BA008A118312F9228A1536103608831616
:10191000870083120710E20A672C002828308316FC
:10192000B500FA30BA008A118312F9228A1583169B
:0A193000B50B912C8312AE2A630060
:02400E00313F40
:00000001FF
;PIC16F876A
