:1000000008308A00182A0000FF00030E8301A100B7
:100010000A08A0008A010408A2007708A300780853
:10002000A4007908A5007A08A6007B08A70083131E
:1000300083120B1E1D288B183028220884002308E9
:10004000F7002408F8002508F9002608FA00270818
:10005000FB0020088A00210E8300FF0E7F0E09009E
:100060008A110A12CD28831606148312061C3D2815
:10007000A8183D280230F800CC28B61036088316A0
:100080008700831287101308273093008316141CEF
:100090004728831213088316DE008312130870307A
:1000A00093008316141C52288312B6103608831648
:1000B00087008312871483165E1B67288312A81C8F
:1000C0006328831667280330F800CC288316831230
:1000D000B610360883168700831287101308613024
:1000E00093008316141C722883121308930183163D
:1000F000141C782883121308AC001308930183168C
:10010000141C802883121308B5008316DC015C08D8
:10011000073C031C9B282D305C078400831383124B
:10012000130893018316141C93288312130880006C
:100130008316DC0A87288312B610360883168700D8
:1001400083128714B610360883168700831287102F
:100150001308173093008316141CAC28831213085D
:1001600093018316141CB228831213088316DD0032
:100170008312B610360883168700831287148316FD
:100180005D18C8288312A8140130F800CC28831603
:100190008312A8100030F80000343320780883164A
:1001A000DB00DB080319D6285B0BF12883122D082E
:1001B000B9002E08BA002F08BB003008BC00310877
:1001C000BD003208BE003308BF003408C000332031
:1001D00078088316DB00DB080319D6285B0BF128AF
:1001E000D62883128B108A110A121D280B138B1329
:1001F0008B1BF7280B16831601130614C0308312CD
:100200008B048A150A127E2A831687110716871215
:1002100083129412B612360883168700831236169C
:100220003608831687008312B611360883168700B6
:10023000203083129400C0308316940083128A15F4
:100240000A12812A831687100614071183123611A9
:1002500036088316870083120711B61036088316F6
:100260008700831287101308303093008316141C04
:10027000372983121308FF3093008316141C3E297C
:1002800083121308C23093008316141C452983126D
:100290001308C23093008316141C4C2983121308D0
:1002A000C23093008316141C532983121308C230E2
:1002B00093008316141C5A298312B610360883162D
:1002C000870083128714B6103608831687008312BE
:1002D000871013082A3093008316141C6D2983128B
:1002E0001308FF3093008316141C7429831213081B
:1002F000C23093008316141C7B2983121308C2306A
:1003000093008316141C822983121308C2309300B1
:100310008316141C892983121308C2309300831694
:10032000141C90298312B610360883168700831296
:100330008714B610360883168700831287101308B7
:100340002B3093008316141CA329831213088316E1
:100350004208831293008316141CAC2983121308DD
:10036000C23093008316141CB32983121308C230C1
:1003700093008316141CBA2983121308C230930009
:100380008316141CC12983121308C23093008316EC
:10039000141CC8298312B6103608831687008312EE
:1003A0008714B61036088316870083128710130847
:1003B0002C3093008316141CDB298312130893013D
:1003C0008316141CE1298312B610360883168700A1
:1003D00083128714B610360883168700831287109D
:1003E0001308213093008316141CF4298312130878
:1003F000073093008316141CFB298312B6103608AD
:100400008316870083128714B61036088316870078
:10041000831287101308223093008316141C0E2AAF
:1004200083121308073093008316141C152A8312B5
:10043000B61036088316870083128714B610360864
:1004400083168700831287101308233093008316C6
:10045000141C282A83121308033093008316141CDB
:100460002F2A8312B610360883168700831287144A
:10047000B6103608831687008312871013082430BD
:1004800093008316141C422A831213080A30930027
:100490008316141C492A8312B61036088316870067
:1004A00083128714B61036088316870083128710CC
:1004B0001308253093008316141C5C2A831213083A
:1004C00083164108831293008316141C652A831235
:1004D000B61036088316870083128714B6103608C4
:1004E0008316870083128710130826309300831623
:1004F000141C782A83121308073093008316141CE7
:100500007F2A8312B6103608831687008312871459
:10051000B610360883168700831287101308273019
:1005200093008316141C922A8312130870309300D0
:100530008316141C992A8312B61036088316870076
:1005400083128714B610360883168700831287102B
:100550001308313093008316141CAC2A831213083D
:10056000013093008316141CB32A8312B610360888
:100570008316870083128714B61036088316870007
:10058000831287101308323093008316141CC62A76
:10059000831213080A3093008316141CCD2A831289
:1005A000B61036088316870083128714B6103608F3
:1005B0008316870083128710130833309300831645
:1005C000141CE02A831213080A3093008316141CAB
:1005D000E72A8312B6103608831687008312871421
:1005E0008A150A128A2AC23084008313000803196C
:1005F000072B0130F800F701F70BFC2AF80BFB2A58
:100600004A30F700F70B022B052B800BF92A003438
:10061000361136088316870083120711B610360884
:1006200083168700831287101308203093008316E7
:10063000141C182B831213080F3093008316141CFC
:100640001F2B8312B6103608831687008312871477
:1006500002308316C2008312F32236113608831645
:100660008700831207153130F700F70B352B382B35
:100670008A150A128D2A8E30F70083164208F80078
:100680004108F900FA01F808031D502B7908F80019
:10069000F9010830F702F808031D502BF701582B19
:1006A0000310F81B572BF90DF80DF703502BF81317
:1006B00083128A150A12112B8030831C622B831639
:1006C000C60683128316CB01CC014208CA00460835
:1006D000CA0641080319502CC900F7004508031940
:1006E000592CC9020319F52B031CB32B4608CF0064
:1006F000CF174708CE004808CD00CC010310CF0C1F
:10070000CE0CCD0CCC0CC90B7D2BCA1F8A2B4B14E5
:100710006D2C4B1049104B16C43084008313822C6F
:100720004B12CA1B9D2B491CA82BCF0CCE0CCD0CF9
:10073000CC0CF70A0319682CA82BCF1BAB2B03108A
:10074000CC0DCD0DCE0DCF0DF7030319682C9D2BCD
:100750004B17152C4B134208CA00CA1FB12BCF17D9
:10076000612CCF13612C4508C900F7004108C9026C
:100770004208CF00CF174308CE004408CD00CC017B
:100780000310CF0CCE0CCD0CCC0CC90BBF2BCA1F49
:10079000CC2BCB146D2CCB104910CB16C830840059
:1007A0008313822CCB12CA1BDF2B491CEA2BCF0CE4
:1007B000CE0CCD0CCC0CF70A0319682CEA2BCF1BFE
:1007C000ED2B0310CC0DCD0DCE0DCF0DF70303197E
:1007D000682CDF2BCB17152CCB134608CA00CA1F79
:1007E000F32BCF17612CCF13612C4608CF00CF1706
:1007F0004708CE004808CD00CA1F022CCF134B1566
:100800006D2C4B11CC014910C43084008313822C11
:10081000CA1B2B2C4208CA00491C152CCF0CCE0C2D
:10082000CD0CCC0CF70A0319682CCC1F262CCD0A52
:10083000031D262CCE0A031D262CCF0A031D262CB1
:10084000CF0CCE0CCD0CF70A0319682C4B1BAA2B2E
:10085000CB1BEC2B4A2C8030CF06CF1F332C6D2CBA
:100860004608CA00402C4208CA00CF08031D402C8D
:10087000CE08031D402CCD08031D402CF701612C30
:10088000CF1B4A2C0310CC0DCD0DCE0DCF0DF70B89
:10089000402C682CCA1F4E2CCF17612CCF13612C13
:1008A0004508F7004608CF004708CE004808CD00AD
:1008B000612C4108F7004208CF004308CE004408ED
:1008C000CD004F08F8004E08F9004D08FA00A02CA2
:1008D000F701F801F901FA01A02CCC01CD09CE09EC
:1008E000CF09CC09CC0A031D7B2CCD0A031D7B2C20
:1008F000CE0A0319CF0A4B18892BCB18CB2B4B19D7
:10090000012C302C0008CD07031C8C2CCE0A031DB3
:100910008C2CCF0A0319491484030008CE07031C4A
:10092000942CCF0A0319491484030008801F803ACD
:10093000CF07031849144B1A902BCB1AD22B082C33
:1009400083120034831641080319682DCD00450831
:100950000319682DCD02031CB22C7F30CD0703187C
:10096000682DB82C8130CD02031C682D0319682D29
:100970004D08F700F801F901FA01CC014208CB005B
:10098000CB174308CA004408C9001930CD004808F5
:10099000C9020318DB2C0130CA020318DB2CCB027E
:1009A0000318DB2CCC020318DB2CCC0ACB0ACA0AB6
:1009B0004808C9070D2D4708CA020318F62C013054
:1009C000CB020318F62CCC020318F62CCC0ACB0A67
:1009D0004708CA074808C907031C0D2DCA0A031D8A
:1009E0000D2DCB0A031D0D2DCC0A0D2D4608803888
:1009F000CB0203180C2D0130CC0203180C2DCC0AAD
:100A000046088038CB074708CA07031CEA2CCB0AE4
:100A1000031DEA2CCC0AEA2C7A14CD0B102D1B2DC9
:100A20000310C90DCA0DCB0DCC0D0310FA0DF90D35
:100A3000F80DCE0DC72C4E1C232D0310F80CF90C0D
:100A4000FA0CCE0C262DF7030319682DCE1B4F2D63
:100A50000310C90DCA0DCB0DCC0D4808C9020318EF
:100A60003B2D0130CA0203183B2DCB0203183B2D4E
:100A7000CC02031C5E2D4708CA020318462D013024
:100A8000CB020318462DCC02031C5E2D460880388D
:100A9000CB0203184F2D0130CC02031C5E2DFA0A45
:100AA000031D5E2DF90A031D5E2DF80A031D5E2D40
:100AB000F70A0319682DF80CF90CFA0C4208CD005E
:100AC0004608CD06CD1F662DF8176C2DF8136C2D3A
:100AD000F701F801F901FA018312003483164E0878
:100AE0000319DF2DD60052080319DF2DD60703188E
:100AF000802D7F30D602031CDF2D0319DF2D842DBE
:100B00008130D6070318DF2D5608F700F801F901E8
:100B1000FA014F08DA00DA175008D9005108D80056
:100B20001830D600D701581CAD2D5508FA07031C04
:100B30009F2DF90A031D9F2DF80A0319D717540892
:100B4000F907031CA62DF80A0319D7175308D0007C
:100B5000D0175008F8070318D717D70DF80CF90C61
:100B6000FA0CDA0CD90CD80C0310D60B922D0130EC
:100B7000F7070318DF2DF81BC42DDA0DFA0DF90D58
:100B8000F80DF7030319DF2DDA1FD52DFA0A031D1F
:100B9000D52DF90A031DD52DF80A031DD52DF80C06
:100BA000F90CFA0CF70A0319DF2D4F08D700530888
:100BB000D706D71FDD2DF817E32DF813E32DF70126
:100BC000F801F901FA0183120034F701F801F90183
:100BD000FA018316D601D701D801D901550854046A
:100BE000530452040319242E2030DA000310CE0DD2
:100BF000CF0DD00DD10DD60DD70DD80DD90D55086F
:100C00005902031D0D2E54085802031D0D2E5308C2
:100C10005702031D0D2E52085602031C1E2E5208A9
:100C2000D6025308031C530FD7025408031C540F59
:100C3000D8025508031C550FD9020314F70DF80DFF
:100C4000F90DFA0DDA0BF62DD630840083138312DA
:100C500000347C08840083137D18831783164E08A4
:100C60008000840A8001FC0A0319FD0A8312003403
:100C700004088316C6004508C80003195A2E440804
:100C8000D1004308D0004208CF004108CE00D50172
:100C9000D4012030D3008230D20083126E257A082E
:100CA0008316C4007908C3007808C2007708C10021
:100CB000C80B3F2E4408D1004308D0004208CF00A3
:100CC0004108CE004E08B63CCE00FA014F08D200D3
:100CD000CF170310CF0CD00CD10CFA0CF90CF80C78
:100CE000F70CCE0B692ED21F802EF709F809F909EF
:100CF000FA09F70A0319F80A0319F90A0319FA0A93
:100D00007A08C4007908C3007808C2007708C100D7
:100D1000C41F972EC603C616C109C209C309C40958
:100D2000C10A0319C20A0319C30A0319C40A3B30D2
:100D3000CD009A30CC00CA30CB00CA010A30C800BE
:100D400045080319C60A4408D1004308D0004208E8
:100D5000CF004108CE004D08D5004C08D4004B0808
:100D6000D3004A08D2008312E52500088316C1008B
:100D7000840A0008C200840A0008C300840A00082C
:100D8000C400FD308407F708031DD92E450A480228
:100D90000319D92E46080319DB2E0F39480203190F
:100DA000D32E0318132FC61B132F461BDB2E203008
:100DB0000D2F2030C605C61EEB2EC6124508031D9A
:100DC000C6037708C6002D30CE008312292683166D
:100DD0004608F700C60145084802031DFB2E7708A8
:100DE000C6002E30CE008312292683164608F7004F
:100DF0002030C60500303030C61E0D2FC612450803
:100E0000031DC6037708C6002D30CE0083122926A5
:100E100083164608F700C6013030F7077708CE0082
:100E20008312292683164D08D1004C08D0004B08A8
:100E3000CF004A08CE00D501D401D3010A30D20038
:100E40008312E5257A088316CD007908CC0078084E
:100E5000CB007708CA00C80BA32E83128A150A128A
:020E6000472C1D
:101000008316C20142081F3C031C142AC101410877
:10101000073C031C21282D304107C300C4010318DD
:10102000C40A41304207840083130008C500430806
:10103000840083134418831745088000C20AC10A3C
:101040000728C20308308312B5008B1F29282814F3
:101050002A2828100B138B138B1B2B2836113608CC
:101060008316870083120711B6103608831687008F
:10107000831287101308273093008316141C3E2810
:1010800083121308703093008316141C45288312B2
:10109000B61036088316870083128714B6103608F8
:1010A000831687008312871013082230930083165B
:1010B000141C582883121308013093008316141C43
:1010C0005F288312B61036088316870083128714B0
:1010D000B610360883168700831287101308303045
:1010E00093008316141C722883123508930083160C
:1010F000141C782883121308C23093008316141C22
:101100007F2883121308C23093008316141C86288C
:1011100083121308C23093008316141C8D28831287
:101120001308C23093008316141C94288312B6103F
:1011300036088316870083128714B6103608831684
:1011400087008312871013082A3093008316141C1B
:10115000A7288312350893008316141CAD28831228
:101160001308C23093008316141CB428831213088A
:10117000C23093008316141CBB2883121308C2309C
:1011800093008316141CC22883121308C2309300E4
:101190008316141CC9288312B610360883168700DC
:1011A00083128714B61036088316870083128710BF
:1011B00013080B3093008316141CDC2883121308C9
:1011C00093018316141CE22883121308B500130838
:1011D00093018316141CEA288312130893018316C3
:1011E000141CF0288312130893018316141CF6288C
:1011F0008312130893018316141CFC288312B61063
:1012000036088316870083128714B61036088316B3
:101210008700831287101308A03093008316141CD4
:101220000F298312AB0A2B0893008316141C16296E
:101230008312350893008316141C1C29C30143082C
:10124000073C031C34292D30430784008313000816
:10125000C500831213088316450883129300831672
:10126000141C3029C30A1F298312B61036088316AE
:10127000870083128714B6103608831687008312FE
:1012800087101308203093008316141C45298312FD
:1012900013080E3093008316141C4C298312B610C9
:1012A0003608831687008312871436113608831692
:1012B0008700831207150430F700F70B5D296029BA
:1012C000361136088316870083120711AA01A90177
:1012D000831606148312061C7829A90A0319AA0A80
:1012E0002908F43C031D77292A0B772978296829D6
:1012F000B61036088316870083128710130827302C
:1013000093008316141C8229831213088316C400C9
:1013100083121308703093008316141C8D298312D6
:10132000B61036088316870083128714B610360865
:1013300083168700831287101308223093008316C8
:10134000141CA02983121308073093008316141C61
:10135000A7298312B61036088316870083128714D4
:10136000B610360883168700831287101308E13001
:1013700093008316141CBA298312B61036088316FC
:10138000870083128714B6103608831687008312ED
:1013900087101308203093008316141CCD29831264
:1013A00013080F3093008316141CD4298312B6102F
:1013B0003608831687008312871436113608831681
:1013C0008700831207153130F700F70BE529E8296C
:1013D0002908F43C031DF6292A0BF629281CF229BA
:1013E000C0308B048B100230F8000F2A8316441A89
:1013F000062AC41E062A8312281C002AC0308B0429
:101400008B100030F8000F2A0F2A83168312281C35
:101410000B2AC0308B048B100130F8000F2A78089B
:10142000E1008316C20A022883128A150A12A92C27
:10143000840183131F30830583161F149F141F1507
:101440009F1107309C0083122810A901AA01A8103F
:10145000AB01AC01AD01AE01AF01B001B101B20110
:10146000B301B401B501FF30B600B701B801E20124
:10147000E301E401E5014D308316A0006F30A100C7
:101480007430A2006530A3005F30A4003030A500A6
:101490003130A600A7018312E701A030E600E80181
:1014A000E901EA01EB01EC01ED01EE01EF01F001D0
:1014B000F101F201F301F401F501FC01FD015430E9
:1014C0008316AF006530B0006D30B1007030B200EF
:1014D0006530B3007230B4006130B5007430B600CE
:1014E0007530B7007230B8006130B9003A30BA00D8
:1014F0002030BB00BC018A118312F6288A158A119C
:1015000004298A1540308316C1000130C2008A11B7
:10151000831222298A158A11082B8A150530831611
:10152000C2008A118312F3228A153F308316850088
:10153000831236103608831687008312071083162D
:101540001F109F101F119F110630F700F70BA62ADE
:1015500000001F1383121F179F1783169F178312F4
:101560001F1414308316C2008A118312F3228A15C5
:101570008316BF013F08013C031CE22A8312361088
:1015800036088316870083120710C8308316C200FE
:101590008A118312F3228A153610360883168700C3
:1015A00083120714C8308316C2008A118312F322F3
:1015B0008A153610360883168700831207108316A3
:1015C000BF0ABA2A0830C100FA30C2008A11831259
:1015D000F3228A158316C10BE42A0830F80083121F
:1015E0001F08C73978049F000630F700F70BF62A6A
:1015F0000000E501E401E301E2018316C0014008B7
:10160000053C031C402B83121F151F19052B1E08B8
:10161000FA0083161E08C1007A08C2008A118312DC
:101620003B2B8A15831065088316C4008312640857
:101630008316C300831263088316C20083126208F4
:101640008316C1007A08C8007908C7007808C60068
:101650007708C5008A1183125C238A157A08E50091
:101660007908E4007808E3007708E2000A3083167E
:10167000C2008A118312F3228A158316C00AFF2A38
:10168000831265088316C400831264088316C3009E
:10169000831263088316C200831262088316C10096
:1016A000C801C701C6017F30C5008A118312A22478
:1016B0008A157A08E5007908E4007808E3007708DD
:1016C000E20001308316C2008A118312F3228A15C8
:1016D0008316BF013F08013C031C922B8312361076
:1016E00036088316870083120710C8308316C2009D
:1016F0008A118312F3228A15361036088316870062
:1017000083120714C8308316C2008A118312F32291
:101710008A15361036088316870083120710831641
:10172000BF0A6A2B831265088316D10083126408EE
:101730008316D000831263088316CF0083126208D9
:101740008316CE00D501D4012030D3007730D200EB
:101750008A1183126E258A157A08E5007908E4005B
:101760007808E3007708E200831465088316C40054
:10177000831264088316C300831263088316C200B1
:10178000831262088316C100C801C701C6017E30FA
:10179000C5008A1183125C238A157A08E50079084E
:1017A000E4007808E3007708E20065088316C400C7
:1017B000831264088316C300831263088316C20071
:1017C000831262088316C1000A30C800D730C700F0
:1017D0002330C6007830C5008A118312A2248A15EE
:1017E0007A08E5007908E4007808E3007708E20069
:1017F0008316BF013F08023C031C222C83123610C3
:1018000036088316870083120710C8308316C2007B
:101810008A118312F3228A15361036088316870040
:1018200083120714C8308316C2008A118312F32270
:101830008A15361036088316870083120710831620
:10184000BF0AFA2B0830C100FA30C2008A11831295
:10185000F3228A158316C10B242CFD01A830FC004D
:1018600089308400831265088316C40083126408DB
:101870008316C300831263088316C20083126208B2
:101880008316C1000230C5008A118312382E8A15D2
:101890008316BD013D08073C031C682C41303D0701
:1018A000F800FA010318FA0A7808C1007A08C200A1
:1018B00003103D0D663E840083130008C3004108F9
:1018C000840083134218831743088000BD0A4A2C02
:1018D0000830BD003D08143C031C872C41303D07F7
:1018E000F800FA010318FA0A7808C1007A08C20061
:1018F000AF303D07840083130008C3004108840013
:1019000083134218831743088000BD0A6A2CBD0A5E
:10191000BE013E08063C031CA72C41303D07F800E1
:10192000FA010318FA0A7808C1007A08C200A83040
:101930003E07840083130008C3004108840083131A
:101940004218831743088000BD0ABE0A892C8312FF
:10195000002828308316C100FA30C2008A11831291
:0E196000F3228A158316C10BAC2CB92A630042
:02400E00313F40
:00000001FF
;PIC16F876A
