:1000000008308A004F2A0000FF00030E8301A10080
:100010000A08A0008A010408A2007708A300780853
:10002000A4007908A5007A08A6007B08A70083131E
:1000300083120B1E1D288B183028220884002308E9
:10004000F7002408F8002508F9002608FA00270818
:10005000FB0020088A00210E8300FF0E7F0E09009E
:100060008A110A12CD2A831606148312061C3D2813
:10007000A9183D280230F800CC28B710370883169D
:100080008700831287101308273093008316141CEF
:100090004728831213088316CF0083121308703089
:1000A00093008316141C52288312B7103708831646
:1000B00087008312871483164F1B67288312A91C9D
:1000C0006328831667280330F800CC288316831230
:1000D000B710370883168700831287101308613022
:1000E00093008316141C722883121308930183163D
:1000F000141C782883121308AD001308930183168B
:10010000141C802883121308B6008316CD014D08F5
:10011000073C031C9B282E304D0784008313831259
:10012000130893018316141C93288312130880006C
:100130008316CD0A87288312B710370883168700E5
:1001400083128714B710370883168700831287102D
:100150001308173093008316141CAC28831213085D
:1001600093018316141CB228831213088316CE0041
:100170008312B710370883168700831287148316FB
:100180004E18C8288312A9140130F800CC28831611
:100190008312A9100030F8000034CE30840083139D
:1001A00000080319E1280130F800F701F70BD62801
:1001B000F80BD5284A30F700F70BDC28DF28800B36
:1001C000D32800348B1FE6282914E72829100B13A5
:1001D0008B138B1BE828371137088316870083128F
:1001E0000711B7103708831687008312871013088A
:1001F000273093008316141CFB28831213087030D9
:1002000093008316141C02298312B7103708831633
:10021000870083128714B71037088316870083126C
:1002200087101308223093008316141C152983129B
:100230001308013093008316141C1C298312B71075
:1002400037088316870083128714B7103708831680
:100250008700831287101308303093008316141C14
:100260002F298312360893008316141C3529831214
:100270001308C23093008316141C3C298312130800
:10028000C23093008316141C432983121308C23012
:1002900093008316141C4A2983121308C23093005A
:1002A0008316141C51298312B71037088316870050
:1002B00083128714B71037088316870083128710BC
:1002C00013082A3093008316141C642983123608FD
:1002D00093008316141C6A2983121308C2309300FA
:1002E0008316141C712983121308C23093008316DD
:1002F000141C782983121308C23093008316141C2F
:100300007F2983121308C23093008316141C862998
:100310008312B71037088316870083128714B7102B
:100320003708831687008312871013080B30930059
:100330008316141C99298312130893018316141C25
:100340009F2983121308B600130893018316141C07
:10035000A7298312130893018316141CAD29831255
:10036000130893018316141CB329831213089301F5
:100370008316141CB9298312B71037088316870017
:1003800083128714B71037088316870083128710EB
:100390001308A03093008316141CCC298312AC0AD6
:1003A0002C0893008316141CD3298312360893005B
:1003B0008316141CD929CD014D08073C031CF129D3
:1003C0002E304D07840083130008CF0083121308DA
:1003D00083164F08831293008316141CED29CD0A4F
:1003E000DC298312B710370883168700831287141D
:1003F000B710370883168700831287101308203040
:1004000093008316141C022A831213080E309300E3
:100410008316141C092A8312B71037088316870025
:100420008312871437113708831687008312071544
:100430000430F700F70B1A2A1D2A371137088316E4
:10044000870083120711AB01AA01831606148312D9
:10045000061C352AAA0A0319AB0A2A08F43C031D14
:10046000342A2B0B342A352A252AB710370883164D
:100470008700831287101308273093008316141CFB
:100480003F2A831213088316CE008312130870309C
:1004900093008316141C4A2A8312B7103708831658
:1004A000870083128714B7103708831687008312DA
:1004B00087101308223093008316141C5D2A8312C0
:1004C0001308073093008316141C642A8312B71094
:1004D00037088316870083128714B71037088316EE
:1004E0008700831287101308E13093008316141CD1
:1004F000772A8312B7103708831687008312871470
:10050000B71037088316870083128710130820302E
:1005100093008316141C8A2A831213080F30930049
:100520008316141C912A8312B7103708831687008C
:100530008312871437113708831687008312071533
:100540003130F700F70BA22AA52A2A08F43C031D34
:10055000B32A2B0BB32A291CAF2AC0308B048B1073
:100560000230F800CC2A83164E1AC32ACE1EC32AA4
:100570008312291CBD2AC0308B048B100030F80078
:10058000CC2ACC2A83168312291CC82AC0308B049B
:100590008B100130F800CC2A003433207808831601
:1005A000CC00CC080319D62A4C0B5D2B83122E08E5
:1005B000BC002F08BD003008BE003108BF00320863
:1005C000C0003308C1003408C2003508C30033201E
:1005D00078088316CC0083123C08643C031D562B1C
:1005E0003D08643C031D562B0030F8001F08C73936
:1005F00078049F000630F700F70BFC2A00001F1557
:100600001F19002B83161E088312BA000630F7004C
:10061000F70B082B00000830F8001F08C7397804D2
:100620009F000630F700F70B132B00001F151F1952
:10063000172B83161E088312DD000630F700F70B18
:100640001F2B000001308316CE008312CD20BB0A81
:100650003A08AE001F30AF003B08B0005D08B100A3
:100660000830B600E2207808DC0032308316CE0075
:100670008312CD20831686128312861604308316C9
:10068000CD00FA30CE008312CD208316CD0B412B46
:1006900086128312861204308316CD00FA30CE0003
:1006A0008312CD208316CD0B4E2B83128316CC08DC
:1006B0000319D62A4C0B5D2BD62A83128B108A1174
:1006C0000A121D280B138B138B1B632B0B1683161F
:1006D00001130614C03083128B048A150A12972A5C
:1006E000831687110716871283129412B7123708E0
:1006F0008316870083123716370883168700831204
:10070000B711370883168700203083129400C03059
:100710008316940083128A150A129A2A8316871068
:1007200006140711831237113708831687008312C6
:100730000711B71037088316870083128710130834
:10074000303093008316141CA32B83121308FF3040
:1007500093008316141CAA2B83121308C230930033
:100760008316141CB12B83121308C2309300831616
:10077000141CB82B83121308C23093008316141C68
:10078000BF2B83121308C23093008316141CC62B90
:100790008312B71037088316870083128714B710A7
:1007A0003708831687008312871013082A309300B6
:1007B0008316141CD92B83121308FF309300831661
:1007C000141CE02B83121308C23093008316141CF0
:1007D000E72B83121308C23093008316141CEE2BF0
:1007E00083121308C23093008316141CF52B831256
:1007F0001308C23093008316141CFC2B8312B7100D
:1008000037088316870083128714B71037088316BA
:1008100087008312871013082B3093008316141C53
:100820000F2C831213088316330883129300831648
:10083000141C182C83121308C23093008316141C46
:100840001F2C83121308C23093008316141C262C0D
:1008500083121308C23093008316141C2D2C8312AC
:100860001308C23093008316141C342C8312B71063
:1008700037088316870083128714B710370883164A
:1008800087008312871013082C3093008316141CE2
:10089000472C8312130893018316141C4D2C8312CA
:1008A000B71037088316870083128714B7103708EC
:1008B0008316870083128710130821309300831654
:1008C000141C602C83121308073093008316141C29
:1008D000672C8312B710370883168700831287149A
:1008E000B710370883168700831287101308223049
:1008F00093008316141C7A2C83121308073093007C
:100900008316141C812C8312B710370883168700B6
:1009100083128714B7103708831687008312871055
:100920001308233093008316141C942C831213088D
:10093000033093008316141C9B2C8312B7103708C6
:100940008316870083128714B71037088316870031
:10095000831287101308243093008316141CAE2CC6
:10096000831213080A3093008316141CB52C8312CB
:10097000B71037088316870083128714B71037081B
:10098000831687008312871013082530930083167F
:10099000141CC82C83121308831632088312930088
:1009A0008316141CD12C8312B710370883168700C6
:1009B00083128714B71037088316870083128710B5
:1009C0001308263093008316141CE42C831213089A
:1009D000073093008316141CEB2C8312B7103708D2
:1009E0008316870083128714B71037088316870091
:1009F000831287101308273093008316141CFE2CD3
:100A000083121308703093008316141C052D831273
:100A1000B71037088316870083128714B71037087A
:100A200083168700831287101308313093008316D2
:100A3000141C182D83121308013093008316141C04
:100A40001F2D8312B710370883168700831287146F
:100A5000B7103708831687008312871013083230C7
:100A600093008316141C322D831213080A3093004E
:100A70008316141C392D8312B7103708831687008C
:100A800083128714B71037088316870083128710E4
:100A90001308333093008316141C4C2D8312130853
:100AA0000A3093008316141C532D8312B710370895
:100AB00083168700831287148A150A12A32A371116
:100AC00037088316870083120711B710370883167B
:100AD0008700831287101308203093008316141C9C
:100AE0006F2D831213080F3093008316141C762D7C
:100AF0008312B71037088316870083128714A80162
:100B00008B1BA8178B1302308316CE008312CD20C7
:100B1000A81B8B1737113708831687008312071518
:100B20003130F700F70B922D952D8A150A12A62A5F
:100B30008E30F70083163308F8003208F900FA0106
:100B4000F808031DAD2D7908F800F9010830F70207
:100B5000F808031DAD2DF701B52D0310F81BB42DBA
:100B6000F90DF80DF703AD2DF81383128A150A124B
:100B70004B2B8316320803197F2EBE00360803194B
:100B80007F2EBE02031CC92D7F30BE0703187F2EA7
:100B9000CF2D8130BE02031C7F2E03197F2E3E080D
:100BA000F700F801F901FA01BD013308BC00BC17D8
:100BB0003408BB003508BA001930BE003908BA0243
:100BC0000318F22D0130BB020318F22DBC020318EA
:100BD000F22DBD020318F22DBD0ABC0ABB0A39086A
:100BE000BA07242E3808BB0203180D2E0130BC02B0
:100BF00003180D2EBD0203180D2EBD0ABC0A3808BD
:100C0000BB073908BA07031C242EBB0A031D242E78
:100C1000BC0A031D242EBD0A242E37088038BC02CE
:100C20000318232E0130BD020318232EBD0A3708F6
:100C30008038BC073808BB07031C012EBC0A031D03
:100C4000012EBD0A012E7A14BE0B272E322E031060
:100C5000BA0DBB0DBC0DBD0D0310FA0DF90DF80D4D
:100C6000BF0DDE2D3F1C3A2E0310F80CF90CFA0CC8
:100C7000BF0C3D2EF70303197F2EBF1B662E0310FA
:100C8000BA0DBB0DBC0DBD0D3908BA020318522EAA
:100C90000130BB020318522EBC020318522EBD02B3
:100CA000031C752E3808BB0203185D2E0130BC02F0
:100CB00003185D2EBD02031C752E37088038BC0258
:100CC0000318662E0130BD02031C752EFA0A031D9F
:100CD000752EF90A031D752EF80A031D752EF70AE5
:100CE00003197F2EF80CF90CFA0C3308BE003708F4
:100CF000BE06BE1F7D2EF817832EF813832EF70134
:100D0000F801F901FA018312003483163F08031930
:100D1000F62EC70043080319F62EC7070318972EAF
:100D20007F30C702031CF62E0319F62E9B2E81304E
:100D3000C7070318F62E4708F700F801F901FA0172
:100D40004008CB00CB174108CA004208C900183040
:100D5000C700C801491CC42E4608FA07031CB62E5A
:100D6000F90A031DB62EF80A0319C8174508F90732
:100D7000031CBD2EF80A0319C8174408C100C11787
:100D80004108F8070318C817C80DF80CF90CFA0C3D
:100D9000CB0CCA0CC90C0310C70BA92E0130F707E6
:100DA0000318F62EF81BDB2ECB0DFA0DF90DF80DFE
:100DB000F7030319F62ECB1FEC2EFA0A031DEC2EB7
:100DC000F90A031DEC2EF80A031DEC2EF80CF90CA1
:100DD000FA0CF70A0319F62E4008C8004408C806A2
:100DE000C81FF42EF817FA2EF813FA2EF701F8019F
:100DF000F901FA0183120034F701F801F901FA014F
:100E00008316C701C801C901CA0146084504440444
:100E1000430403193B2F2030CB000310BF0DC00D3E
:100E2000C10DC20DC70DC80DC90DCA0D46084A0235
:100E3000031D242F45084902031D242F440848029E
:100E4000031D242F43084702031C352F4308C70204
:100E50004408031C440FC8024508031C450FC9027F
:100E60004608031C460FCA020314F70DF80DF90DCE
:100E7000FA0DCB0B0D2FC73084008313831200347F
:100E80006208840083136318831783163F08800069
:100E9000840A80018312E20A0319E30A00348316EC
:100EA000B3013308173C031C9F2FB2013208073CE3
:100EB000031C702F2E303207B400B5010318B50A99
:100EC00044303307840083130008B60034088400DC
:100ED00083133518831736088000B30AB20A562FD9
:100EE000B30308308312B600A8018B1BA8178B131D
:100EF000E220A81B8B177808DC0037103708831610
:100F000087008312071402308316B4008312A801ED
:100F10008B1BA8178B1396308316CE008312CD201F
:100F2000A81B8B178316B40B862F83123710370834
:100F300083168700831207108316B30A512F83127A
:060F40008A150A12B22C12
:101000008030831C06288316B70683128316BC0122
:10101000BD013308BB003708BB0632080319F428AA
:10102000BA00F70036080319FD28BA0203199928F7
:10103000031C57283708C000C0173808BF003908FC
:10104000BE00BD010310C00CBF0CBE0CBD0CBA0B22
:101050002128BB1F2E283C1411293C103A103C16A5
:10106000B5308400831326293C12BB1B41283A1C4F
:101070004C28C00CBF0CBE0CBD0CF70A03190C2980
:101080004C28C01B4F280310BD0DBE0DBF0DC00D59
:10109000F70303190C2941283C17B9283C133308DE
:1010A000BB00BB1F5528C0170529C01305293608EA
:1010B000BA00F7003208BA023308C000C01734087B
:1010C000BF003508BE00BD010310C00CBF0CBE0C34
:1010D000BD0CBA0B6328BB1F7028BC141129BC10AF
:1010E0003A10BC16B930840083132629BC12BB1BEE
:1010F00083283A1C8E28C00CBF0CBE0CBD0CF70A0E
:1011000003190C298E28C01B91280310BD0DBE0D9C
:10111000BF0DC00DF70303190C298328BC17B9288C
:10112000BC133708BB00BB1F9728C0170529C01385
:1011300005293708C000C0173808BF003908BE00AD
:10114000BB1FA628C0133C1511293C11BD013A1044
:10115000B530840083132629BB1BCF283308BB007E
:101160003A1CB928C00CBF0CBE0CBD0CF70A031901
:101170000C29BD1FCA28BE0A031DCA28BF0A031DA9
:10118000CA28C00A031DCA28C00CBF0CBE0CF70A2F
:1011900003190C293C1B4E28BC1B9028EE288030DC
:1011A000C006C01FD72811293708BB00E428330820
:1011B000BB00C008031DE428BF08031DE428BE08C7
:1011C000031DE428F7010529C01BEE280310BD0DFF
:1011D000BE0DBF0DC00DF70BE4280C29BB1FF22874
:1011E000C0170529C01305293608F7003708C000C5
:1011F0003808BF003908BE0005293208F700330857
:10120000C0003408BF003508BE004008F8003F08A1
:10121000F9003E08FA004429F701F801F901FA0142
:101220004429BD01BE09BF09C009BD09BD0A031D8E
:101230001F29BE0A031D1F29BF0A0319C00A3C1833
:101240002D28BC186F283C19A528D4280008BE07F3
:10125000031C3029BF0A031D3029C00A03193A14A0
:1012600084030008BF07031C3829C00A03193A1475
:1012700084030008801F803AC00703183A143C1A00
:101280003428BC1A7628AC2883128A150A12F32B4C
:1012900004088316B7003608B90003196C2935080D
:1012A000C2003408C1003308C0003208BF00C601C4
:1012B000C5012030C4008230C3008A118312852604
:1012C0008A157A088316B5007908B4007808B30047
:1012D0007708B200B90B4F293508C2003408C100A5
:1012E0003308C0003208BF003F08B63CBF00FA0117
:1012F0004008C300C0170310C00CC10CC20CFA0C8C
:10130000F90CF80CF70CBF0B7B29C31F9229F709C6
:10131000F809F909FA09F70A0319F80A0319F90A89
:101320000319FA0A7A08B5007908B4007808B300FE
:101330007708B200B51FA929B703B716B209B309D8
:10134000B409B509B20A0319B30A0319B40A031997
:10135000B50A3B30BE009A30BD00CA30BC00BB01AC
:101360000A30B90036080319B70A3508C200340834
:10137000C1003308C0003208BF003E08C6003D0867
:10138000C5003C08C4003B08C3008A118312FC2638
:101390008A1500088316B200840A0008B300840A84
:1013A0000008B400840A0008B500FD308407F7087F
:1013B000031DED29360A39020319ED2937080319EF
:1013C000EF290F3939020319E72903182F2AB71B10
:1013D0002F2A371BEF292030272A2030B705B71EC8
:1013E000012AB7123608031DB7037708B7002D305E
:1013F000BF008A11831240278A1583163708F70029
:10140000B70136083902031D132A7708B7002E30BA
:10141000BF008A11831240278A1583163708F70008
:101420002030B70500303030B71E272AB7123608F3
:10143000031DB7037708B7002D30BF008A11831250
:1014400040278A1583163708F700B7013030F707B1
:101450007708BF008A11831240278A1583163E0839
:10146000C2003D08C1003C08C0003B08BF00C601E7
:10147000C501C4010A30C3008A118312FC268A15F3
:101480007A088316BE007908BD007808BC0077088A
:10149000BB00B90BB52983128A150A127A2C840174
:1014A00083131F30830583161F149F141F159F116C
:1014B00007309C0083122910AA01AB01A910AC01CE
:1014C000AD01AE01AF01B001B101B201B301B40190
:1014D000B501B601FF30B700B801B9010C30BA0050
:1014E000BB01DD01DE01DF01E001E101E201E30119
:1014F00054308316A0006530A1006D30A20070301A
:10150000A3006530A4007230A5006130A6007430DD
:10151000A7007530A8007230A9006130AA003A30E7
:10152000AB002030AC00AD018A118312622B8A150A
:101530008A11702B8A1540308316B2000130B30037
:101540008A1183128E2B8A158A115F2D8A15A801A4
:101550008B1BA8178B1305308316CE008A118312BC
:10156000CD208A15A81B8B173F3083168500861265
:101570008312861283160612831206128316061130
:10158000831206113710370883168700831207105D
:1015900083161F109F101F119F110630F700F70BC5
:1015A000CF2A00001F1383121F179F1783169F1740
:1015B00083121F14A8018B1BA8178B1314308316DA
:1015C000CE008A118312CD208A15A81B8B17ED013E
:1015D0006D08013C031C1A2B37103708831687004F
:1015E00083120710A8018B1BA8178B13C830831612
:1015F000CE008A118312CD208A15A81B8B173710B5
:1016000037088316870083120714A8018B1BA817BD
:101610008B13C8308316CE008A118312CD208A1511
:10162000A81B8B1737103708831687008312071003
:10163000ED0AE82A0830EF00A8018B1BA8178B13CE
:10164000FA308316CE008A118312CD208A15A81B8A
:101650008B17EF0B1C2B0830F8001F08C7397804D4
:101660009F000630F700F70B332B0000E101E0018B
:10167000DF01DE01EE01EE08031D5B2B1F151F19B4
:101680003F2B1E08FA0083161E08B2007A08B3002A
:101690008A118312982D8A157A08E1007908E000F2
:1016A0007808DF007708DE000930F700F70B562BCB
:1016B000592BEE0A3B2B61088316B5008312600894
:1016C0008316B40083125F088316B30083125E088A
:1016D0008316B200B901B801B7017F30B6008A1194
:1016E0008312B9258A157A08E1007908E0007808A4
:1016F000DF007708DE00A8018B1BA8178B130130D1
:101700008316CE008A118312CD208A15A81B8B1751
:10171000ED016D08013C031CBB2B37103708831605
:10172000870083120710A8018B1BA8178B13C830E2
:101730008316CE008A118312CD208A15A81B8B1721
:10174000371037088316870083120714A8018B1BF4
:10175000A8178B13C8308316CE008A118312CD20B0
:101760008A15A81B8B17371037088316870083123A
:101770000710ED0A892B61088316C20083126008E6
:101780008316C10083125F088316C00083125E08AF
:101790008316BF00C601C5012030C4007730C300E6
:1017A0008A11831285268A157A08E1007908E000FB
:1017B0007808DF007708DE00831461088316B5001F
:1017C000831260088316B40083125F088316B30087
:1017D00083125E088316B200B901B801B7017E30EA
:1017E000B600831200287A08E1007908E000780842
:1017F000DF007708DE0061088316B50083126008F9
:101800008316B40083125F088316B30083125E0848
:101810008316B2000A30B900D730B8002330B700C1
:101820007830B6008A118312B9258A157A08E1004A
:101830007908E0007808DF007708DE00ED016D0828
:10184000023C031C512C3710370883168700831283
:101850000710A8018B1BA8178B13C8308316CE0066
:101860008A118312CD208A15A81B8B1737103708D1
:101870008316870083120714A8018B1BA8178B13EC
:10188000C8308316CE008A118312CD208A15A81B7A
:101890008B17371037088316870083120710ED0A5D
:1018A0001F2C0830EF00A8018B1BA8178B13FA30F0
:1018B0008316CE008A118312CD208A15A81B8B17A0
:1018C000EF0B532CE3016430E2008930840061089F
:1018D0008316B500831260088316B40083125F0874
:1018E0008316B30083125E088316B2000230B6007E
:1018F00083124829EB016B080C3C031C942C4430E8
:101900006B07EF00F0010318F00AA0306B078400AA
:1019100083130008F1006F08840083137018831785
:1019200071088000EB0A7B2CEB0AEC016C08063C8A
:10193000031CB02C44306B07EF00F0010318F00AD1
:1019400064306C07840083130008F1006F08840082
:1019500083137018831771088000EB0AEC0A962C29
:101960008A114F2F8A158316061283120616043029
:10197000EF00A8018B1BA8178B13FA308316CE003B
:101980008A118312CD208A15A81B8B17EF0BB92C57
:1019900083160612831206121430EF00A8018B1B67
:1019A000A8178B13FA308316CE008A118312CD202C
:0E19B0008A15A81B8B17EF0BCE2CE72A6300BD
:02400E00313F40
:00000001FF
;PIC16F876A
